:100000000C942A000C9434000C9434000C943400AA
:100010000C9434000C9434000C9434000C94340090
:100020000C9434000C9434000C9434000C94340080
:100030000C9434000C9434000C9434000C94340070
:100040000C9434000C9434000C9434000C94340060
:100050000C94340011241FBECFE5D4E0DEBFCDBF29
:100060000E9447010C9457020C940000DF93CF9339
:1000700000D00F92CDB7DEB789836A834B838B8123
:10008000813079F589818234A1F4A7E3B0E0E7E318
:10009000F0E08081482F8A81282F30E081E090E0D5
:1000A000022E02C0880F991F0A94E2F7842B8C93CA
:1000B00047C08981843409F043C0A1E3B0E0E1E3A3
:1000C000F0E08081482F8A81282F30E081E090E0A5
:1000D000022E02C0880F991F0A94E2F7842B8C939A
:1000E0002FC089818234A9F4A7E3B0E0E7E3F0E010
:1000F0008081482F8A81282F30E081E090E0022E15
:1001000002C0880F991F0A94E2F7809584238C938C
:1001100017C089818434A1F4A1E3B0E0E1E3F0E009
:100120008081482F8A81282F30E081E090E0022EE4
:1001300002C0880F991F0A94E2F7809584238C935C
:100140000F900F900F90CF91DF910895DF93CF9391
:1001500000D00F92CDB7DEB789836A834B838B8142
:10016000882379F189818234A1F4A8E3B0E0E8E33F
:10017000F0E08081482F8A81282F30E081E090E0F4
:10018000022E02C0880F991F0A94E2F7842B8C93E9
:1001900047C08981843409F043C0A2E3B0E0E2E3C0
:1001A000F0E08081482F8A81282F30E081E090E0C4
:1001B000022E02C0880F991F0A94E2F7842B8C93B9
:1001C0002FC089818234A9F4A8E3B0E0E8E3F0E02D
:1001D0008081482F8A81282F30E081E090E0022E34
:1001E00002C0880F991F0A94E2F7809584238C93AC
:1001F00017C089818434A1F4A2E3B0E0E2E3F0E027
:100200008081482F8A81282F30E081E090E0022E03
:1002100002C0880F991F0A94E2F7809584238C937B
:100220000F900F900F90CF91DF910895DF93CF93B0
:1002300000D00F92CDB7DEB789836A838981843479
:10024000F1F4E0E3F0E08081482F50E08A81282F2C
:1002500030E081E090E002C0880F991F2A95E2F714
:100260009A01282339238A81882F90E0A90102C0AE
:10027000559547958A95E2F7CA018B8301C01B8289
:100280008B810F900F900F90CF91DF910895DF93A6
:10029000CF93CDB7DEB70E9477010E94190280E0AC
:1002A0000E944202882319F00E949201F8CF81E057
:1002B0000E944202882319F00E94AD01F0CF82E033
:1002C0000E944202882319F00E94C801E8CF83E00F
:1002D0000E944202882319F00E94E301E0CF84E0EB
:1002E0000E9442028823D9F20E94FE01D8CFDF93F8
:1002F000CF93CDB7DEB782E460E041E00E943600E4
:1003000082E461E041E00E94360082E462E041E084
:100310000E94360082E463E041E00E943600CF9103
:10032000DF910895DF93CF93CDB7DEB782E460E02D
:1003300041E00E94A60082E461E040E00E94A60045
:1003400082E462E041E00E94A60082E463E040E0D3
:100350000E94A600CF91DF910895DF93CF93CDB790
:10036000DEB782E460E040E00E94A60082E461E043
:1003700041E00E94A60082E462E040E00E94A60004
:1003800082E463E041E00E94A600CF91DF910895EE
:10039000DF93CF93CDB7DEB782E460E040E00E9408
:1003A000A60082E461E040E00E94A60082E462E0F0
:1003B00041E00E94A60082E463E040E00E94A600C3
:1003C000CF91DF910895DF93CF93CDB7DEB782E46D
:1003D00060E041E00E94A60082E461E040E00E940B
:1003E000A60082E462E040E00E94A60082E463E0AE
:1003F00040E00E94A600CF91DF910895DF93CF9354
:10040000CDB7DEB782E460E040E00E94A60082E45F
:1004100061E040E00E94A60082E462E040E00E94C9
:10042000A60082E463E040E00E94A600CF91DF9145
:100430000895DF93CF930F92CDB7DEB719821BC01B
:1004400084E4698140E00E943600A2E3B0E0E2E388
:10045000F0E08081482F8981282F30E081E090E012
:10046000022E02C0880F991F0A94E2F7842B8C9306
:1004700089818F5F89838981853010F30F90CF91B7
:10048000DF910895DF93CF9300D0CDB7DEB7898396
:1004900084E469810E9416011A82882311F481E0A4
:1004A0008A838A810F900F90CF91DF910895F894FD
:0204B000FFCF7C
:00000001FF
